:020000040000fa
:080000000002040000000000f2
:020000040000fa
:040008003a030000b7
:020000040000fa
:04000c004c030000a1
:020000040000fa
:040010005c0300008d
:020000040000fa
:0400140042030000a3
:020000040000fa
:04001800540300008d
:020000040000fa
:04001c00fe040000de
:020000040000fa
:040020006403000075
:020000040000fa
:04002400fe040000d6
:020000040000fa
:04002800fe040000d2
:020000040000fa
:04002c006c03000061
:020000040000fa
:04003000fe040000ca
:020000040000fa
:04003400fe040000c6
:020000040000fa
:04003800fe040000c2
:020000040000fa
:04003c00fe040000be
:020000040000fa
:04004000fe040000ba
:020000040000fa
:04004400fe040000b6
:020000040000fa
:04004800fe040000b2
:020000040000fa
:04004c00fe040000ae
:020000040000fa
:04005000fe040000aa
:020000040000fa
:04005400fe040000a6
:020000040000fa
:04005800fe040000a2
:020000040000fa
:04005c00fe0400009e
:020000040000fa
:04006000fe0400009a
:020000040000fa
:04006400fe04000096
:020000040000fa
:040068009c030000f5
:020000040000fa
:04006c00fe0400008e
:020000040000fa
:04007000fe0400008a
:020000040000fa
:04007400fe04000086
:020000040000fa
:04007800fe04000082
:020000040000fa
:04007c00fe0400007e
:020000040000fa
:04008000fe0400007a
:020000040000fa
:04008400fe04000076
:020000040000fa
:04008800fe04000072
:020000040000fa
:04008c00fe0400006e
:020000040000fa
:04009000fe0400006a
:020000040000fa
:04009400fe04000066
:020000040000fa
:04009800fe04000062
:020000040000fa
:04009c00fe0400005e
:020000040000fa
:0400a000fe0400005a
:020000040000fa
:0400a400fe04000056
:020000040000fa
:0400a800fe04000052
:020000040000fa
:0400ac00fe0400004e
:020000040000fa
:0400b000fe0400004a
:020000040000fa
:0400b400fe04000046
:020000040000fa
:0400b800fe04000042
:020000040000fa
:0400bc00fe0400003e
:020000040000fa
:0400c000fe0400003a
:020000040000fa
:0400c400fe04000036
:020000040000fa
:0400c800fe04000032
:020000040000fa
:0400cc00fe0400002e
:020000040000fa
:0400d000fe0400002a
:020000040000fa
:0400d400fe04000026
:020000040000fa
:0400d800fe04000022
:020000040000fa
:0400dc00fe0400001e
:020000040000fa
:0400e000fe0400001a
:020000040000fa
:0400e400fe04000016
:020000040000fa
:0400e800fe04000012
:020000040000fa
:0400ec00fe0400000e
:020000040000fa
:0400f000fe0400000a
:020000040000fa
:0400f400fe04000006
:020000040000fa
:0400f800fe04000002
:020000040000fa
:0400fc00fe040000fe
:020000040000fa
:04010000fe040000f9
:020000040000fa
:04010400fe040000f5
:020000040000fa
:04010800fe040000f1
:020000040000fa
:04010c00fe040000ed
:020000040000fa
:04011000fe040000e9
:020000040000fa
:04011400fe040000e5
:020000040000fa
:04011800fe040000e1
:020000040000fa
:04011c00fe040000dd
:020000040000fa
:04012000fe040000d9
:020000040000fa
:04012400fe040000d5
:020000040000fa
:04012800fe040000d1
:020000040000fa
:04012c00fe040000cd
:020000040000fa
:04013000fe040000c9
:020000040000fa
:04013400fe040000c5
:020000040000fa
:04013800fe040000c1
:020000040000fa
:04013c00fe040000bd
:020000040000fa
:04014000fe040000b9
:020000040000fa
:04014400fe040000b5
:020000040000fa
:04014800fe040000b1
:020000040000fa
:04014c00fe040000ad
:020000040000fa
:04015000fe040000a9
:020000040000fa
:04015400fe040000a5
:020000040000fa
:04015800fe040000a1
:020000040000fa
:04015c00fe0400009d
:020000040000fa
:04016000fe04000099
:020000040000fa
:04016400fe04000095
:020000040000fa
:04016800fe04000091
:020000040000fa
:04016c00fe0400008d
:020000040000fa
:04017000fe04000089
:020000040000fa
:04017400fe04000085
:020000040000fa
:04017800fe04000081
:020000040000fa
:04017c00fe0400007d
:020000040000fa
:04018000fe04000079
:020000040000fa
:04018400fe04000075
:020000040000fa
:04018800fe04000071
:020000040000fa
:04018c00fe0400006d
:020000040000fa
:04019000fe04000069
:020000040000fa
:04019400fe04000065
:020000040000fa
:04019800fe04000061
:020000040000fa
:04019c00fe0400005d
:020000040000fa
:0401a000fe04000059
:020000040000fa
:0401a400fe04000055
:020000040000fa
:0401a800fe04000051
:020000040000fa
:0401ac00fe0400004d
:020000040000fa
:0401b000fe04000049
:020000040000fa
:0401b400fe04000045
:020000040000fa
:0401b800fe04000041
:020000040000fa
:0401bc00fe0400003d
:020000040000fa
:0401c000fe04000039
:020000040000fa
:0401c400fe04000035
:020000040000fa
:0401c800fe04000031
:020000040000fa
:0401cc00fe0400002d
:020000040000fa
:0401d000fe04000029
:020000040000fa
:0401d400fe04000025
:020000040000fa
:0401d800fe04000021
:020000040000fa
:0401dc00fe0400001d
:020000040000fa
:0401e000fe04000019
:020000040000fa
:0401e400fe04000015
:020000040000fa
:0401e800fe04000011
:020000040000fa
:0401ec00fe0400000d
:020000040000fa
:0401f000fe04000009
:020000040000fa
:0401f400fe04000005
:020000040000fa
:0401f800fe04000001
:020000040000fa
:0401fc00fe040000fd
:020000040000fa
:04020000fe040000f8
:020000040000fa
:04020400fe040000f4
:020000040000fa
:04020800fe040000f0
:020000040000fa
:04020c00fe040000ec
:020000040000fa
:04021000fe040000e8
:020000040000fa
:04021400fe040000e4
:020000040000fa
:04021800fe040000e0
:020000040000fa
:04021c00fe040000dc
:020000040000fa
:04022000fe040000d8
:020000040000fa
:04022400fe040000d4
:020000040000fa
:04022800fe040000d0
:020000040000fa
:04022c00fe040000cc
:020000040000fa
:04023000fe020000ca
:020000040000fa
:040234001c030000a7
:020000040000fa
:04023800fe040000c0
:020000040000fa
:04023c00fe040000bc
:020000040000fa
:04024000fe040000b8
:020000040000fa
:04024400fe040000b4
:020000040000fa
:04024800fe040000b0
:020000040000fa
:04024c00fe040000ac
:020000040000fa
:04025000fe040000a8
:020000040000fa
:04025400fe040000a4
:020000040000fa
:04025800fe040000a0
:020000040000fa
:04025c00fe0400009c
:020000040000fa
:04026000fe04000098
:020000040000fa
:04026400fe04000094
:020000040000fa
:04026800fe04000090
:020000040000fa
:04026c00fe0400008c
:020000040000fa
:04027000fe04000088
:020000040000fa
:04027400fe04000084
:020000040000fa
:04027800fe04000080
:020000040000fa
:04027c00fe0400007c
:020000040000fa
:04028000fe04000078
:020000040000fa
:04028400fe04000074
:020000040000fa
:04028800fe04000070
:020000040000fa
:04028c00fe0400006c
:020000040000fa
:04029000fe04000068
:020000040000fa
:04029400fe04000064
:020000040000fa
:04029800fe04000060
:020000040000fa
:04029c00fe0400005c
:020000040000fa
:0402a000fe04000058
:020000040000fa
:0402a400fe04000054
:020000040000fa
:0402a800fe04000050
:020000040000fa
:0402ac00fe0400004c
:020000040000fa
:0402b000fe04000048
:020000040000fa
:0402b400fe04000044
:020000040000fa
:0402b800fe04000040
:020000040000fa
:0402bc00fe0400003c
:020000040000fa
:0402c000fe04000038
:020000040000fa
:0402c400fe04000034
:020000040000fa
:0402c800fe04000030
:020000040000fa
:0402cc00fe0400002c
:020000040000fa
:0402d000fe04000028
:020000040000fa
:0402d400fe04000024
:020000040000fa
:0402d800fe04000020
:020000040000fa
:0402dc00fe0400001c
:020000040000fa
:0402e000fe04000018
:020000040000fa
:0402e400fe04000014
:020000040000fa
:0402e800fe04000010
:020000040000fa
:0402ec00fe0400000c
:020000040000fa
:0402f000fe04000008
:020000040000fa
:0402f400fe04000004
:020000040000fa
:0402f800fe04000000
:020000040000fa
:0402fc00fe040000fc
:020000040000fa
:04030000fe040000f7
:020000040000fa
:04030400fe040000f3
:020000040000fa
:04030800fe040000ef
:020000040000fa
:04030c00fe040000eb
:020000040000fa
:04031000fe040000e7
:020000040000fa
:04031400fe040000e3
:020000040000fa
:04031800fe040000df
:020000040000fa
:04031c00fe040000db
:020000040000fa
:10040000ef0321000eff21000e0188000000000014
:10041000000020000000e000020032000001200087
:100420002002880014000700760107000000e000a9
:1004300003003a0000bd2000010020000200370048
:100440000000200001002000810f70000100320038
:100450000f000700000020000000e0000200320052
:100460000000020000000000e60902000000000099
:100470000040da000000fe00200020000000e00044
:1004800002003200100020009001880000000600e9
:10049000a1028800800478000000eb001f003700f4
:1004a000e284440054a0b4009905ba00e2844400f8
:1004b00054a0b4009906ba00e284440054a0b400e9
:1004c0000006eb00476fde00fd07b200ae018800ba
:1004d000636ce10003003a000ad801000000eb0061
:1004e0000e003700606ce10008003a00004deb00a0
:1004f0000a05e800020039003420ec000af0a000f0
:100500008b05e900f9ff3e00040037006168e10057
:10051000010032000086eb000b00070019c7ba008b
:100520001905ba000e04e00003003a000a00e000da
:10053000dbff3a0000000600fe07b200ae028800b2
:100540008a047800f5ff37000cd0a300e20f4d00bd
:100550001c00390089027800354dba000a05e80010
:10056000020039003420ec000af0a0008b05e900fd
:100570000f003200254dba000a05e80002003900dc
:100580003420ec000af0a0008b05e90008003200de
:100590000c00e0000600320015cdba000a05e800a4
:1005a000020039003420ec000af0a0008b05e900bd
:1005b0008984e80054a0b4000b00e000e2ff3a0098
:1005c000000006009902ba00055d78008b05e9007d
:1005d000f7ff3200c82ade00055d78008b05e900d0
:1005e000f3ff32000c00e000f1ff320019ddba0029
:1005f000eeff370070090400000000003600f8002c
:10060000809fbe00829fbe00849fbe00869fbe006a
:100610000000fa00980107001048a9000080fa00c5
:100620004f03be004f02be004f01be004f00be0090
:100630003600f900004006003600f800809fbe003a
:10064000829fbe00849fbe00869fbe000000fa000d
:10065000ae0107001068a9000080fa004f03be0039
:100660004f02be004f01be004f00be003600f90031
:10067000004006003600f800c028a9000000eb008a
:100680008c0407003600f8008e040700c048a9005b
:1006900010002000870407003600f800c068a90099
:1006a00020002000830407003600f800c088a9005d
:1006b000300020007f0407003600f800c608a900bb
:1006c000700020007b0407003600f800c408a90071
:1006d000b0002000770407003600f800809fbe00bd
:1006e000829fbe00849fbe00869fbe000000fa006d
:1006f000c08180000000e00002003200c081800064
:10070000000001003bd0bf000040e8003bf0b70014
:1007100010c0b3003af0b7000028a9000080fa002a
:100720004f03be004f02be004f01be004f00be008f
:100730003600f900004006003600f800809fbe0039
:10074000829fbe00849fbe00869fbe000200fa000a
:1007500010818000e20f500088003200e20f50004c
:1007600003003900e30f5000770032009500370096
:100770000110800000402000008060000000e000c8
:1007800005003a0021108000000220000080600077
:100790000000e0000a003200011080000008200084
:1007a000008060000000e000240032002110800082
:1007b00000202000008060000000e0001f003200e8
:1007c00020108000640060000000e0000c003a008f
:1007d00010002000c4010700208180000000e0001c
:1007e0000400320020818000c11080008140780028
:1007f0000148780010002000108188003600370082
:10080000c0108000004f78000000eb00b601070028
:10081000308180000000e00005003200308180005f
:10082000104078000080fb00a01088000182a80022
:100830002000200010818800270037000110800070
:1008400000402000008060000000e0002200320034
:100850002110800000022000008060000000e00005
:100860001d003a0020108000640060000000e000dd
:1008700004003a002c70ef00300020001081880046
:10088000130037002cd0bf000004e0000d00320040
:100890000000eb0094010700308180000000e000c0
:1008a0000500320030818000104078000080fb009d
:1008b000a01088000182a80020002000108188007c
:1008c000030037002c70ef003000200010818800fa
:1008d000c0108000004f780010818000e10f5000b0
:1008e00039003a00211080000002200000806000e2
:1008f0000000e000360032002110800000042000db
:10090000008060000000e0000b003a0020818000c1
:100910000000e0000400320020818000c11080004f
:100920008140780001487800200020006e01070017
:1009300036f0b70029003700c0108000004f780063
:1009400004c2a9002500370030002000660107001e
:1009500036f0b70010c0b3002cf0b70036d0bf009f
:100960000004e00002003200c0108000004f780058
:10097000100020001081880018003700211080002e
:1009800000002800008060000000e0000b003a003a
:100990000000eb0054010700308180000000e000ff
:1009a0000d00320030818000104078000080fb0094
:1009b000a01088000182a800080037002230ef0054
:1009c00006003700ffff370000000000030037007b
:1009d0000000000001003700000000000208a9002c
:1009e0000080fa004f03be004f02be004f01be0060
:1009f0004f00be003600f900004006000040da005b
:080a00000000fe0000000500eb
:020000040000fa
:100a08000000fa00d221ef001048a9003048a800e1
:100a18001068a9003068a8000080fa0000000600ed
:100a28000000fa00d321a8000080fa0000000600a8
:100a38000000fa0088a00a00d40100000080fb0032
:100a480000f0a7000000ea000000ea004f00de0006
:100a5800004078000080fa00000006000000fa005c
:100a6800d321a9000080fa00000006000000fa0067
:100a780099a00a00d40100000080fb0000f0a70044
:100a88000000ea000000ea004f00de0000407800a5
:100a98000080fa00000006000000fa00d301a80058
:100aa8000080fa00000006000000fa00d301a90047
:100ab8000080fa00000006000200fa003000200062
:100ac800000f7800a10e8000000028000080600060
:100ad8000000e0000300320040002000000f780012
:100ae80015003700dca00a00d40100000080fb00dc
:100af800e10f500007003200e20f500008003200fa
:100b08000000e00009003a000000eb00000f780048
:100b18000900370020002000000f78000600370089
:100b280010002000000f780003003700300020007c
:100b3800000f7800000000001e0078000080fa0016
:100b4800000006000600fa00100798002107980028
:100b58000000eb00000f78000f003700d10f800075
:100b680000102000008060000000e0000e003a0045
:100b7800f10f80001e009000010878001e00900010
:100b88000080e800100798002e0090000000e9009f
:100b9800200798001e0fe8002e0090000000e000db
:100ba800eeff3a0001003700000000001e00780048
:100bb8000080fa00000006000600fa0010079800fe
:100bc800210798000000eb00000f78000e003700a6
:100bd800d00f8000620060000000e0000e003a00c4
:100be8001e00900010007800e00f88001e009000a2
:100bf8000080e800100798002e0090000000e9002f
:100c0800200798001e0fe8002e0090000000e0006a
:100c1800efff3a0001003700000000001e007800d6
:100c28000080fa00000006000400fa00100798008f
:100c38000040eb00004f7800100007000004e000bf
:100c4800060032001e00900010007800d00e8800c8
:100c580010c0b300004f7800020037000040eb00de
:100c6800004f78001e4078000080fa00000006005f
:100c78000000fa000080fa00000006000000fa00f8
:100c8800c00e80006100600000f0a7000000ea00cc
:100c98000000e9004f00de00004078000080fa0004
:100ca800000006000400fa00100798000040eb005e
:100cb800004f7800160007000004e0000c00320026
:100cc800e10e80001e00900001087800f10e8000ff
:100cd8001e00900011009800010f80001e00900077
:100ce8002100980010c0b300004f780002003700c0
:100cf8000040eb00004f78001e4078000080fa00aa
:100d0800000006000000fa000080fa00000006005b
:100d18000000fa0011a00a00d80100000080fb00c2
:100d280000f0a7000000ea000000ea004f00de0023
:100d3800004078000080fa00000006000000fa0079
:100d480030742500b07d88000080fa00000006009d
:100d58000200fa00004f78009e80fb00e0022100ac
:100d680000804000104078000080fa000000060073
:100d78000200fa00004f7800114798009e80fb009f
:100d8800e0022100008040009e4090000148780069
:100d98000080fa00000006000000fa0000002800a9
:100da800001088000422ef00d00020002500070072
:100db800d00020001d0007002230ef000000eb00eb
:100dc800060007000000eb000a0007000208a9005f
:100dd8002208a8000080fa00000006000200fa00bd
:100de800000f78009e007800318188000080fa00aa
:100df800000006000200fa00000f78009e0078004c
:100e0800218188000080fa00000006000000fa0036
:100e1800308180000080fa00000006000000fa001f
:100e2800208180000080fa00000006000200fa001d
:100e3800000f78009e007800611088000080fa009a
:100e4800000006000200fa00000f7800f0072000fa
:100e58009e007800808f5000020036000142a800f2
:100e6800010037000142a9002230ef009e007800ff
:100e7800411088000080fa00000006000000fa0017
:100e8800308180000000e0000600320030818000e0
:100e9800104078000080fb00a01088000182a800a4
:100ea80001003700000000000080fa000000060082
:100eb8000000fa00208180000000e00005003200f8
:100ec80020818000c11080008140780001487800ae
:100ed80001003700000000000080fa000000060052
:100ee8000200fa00000f780011a00a00760e000038
:100ef8000004a200614060000080fb006100600007
:100f080000004000b17380000110a10001007000d2
:100f1800b073880089ff07001e007800e10f5000b9
:100f280011003200e10f500003003900e20f5000b9
:100f3800130032003500370040818000e1022100b3
:100f4800810040000000e80040818800010078002e
:100f5800a2ff070040818000e50f50002600360000
:100f68002830ef00290037002a30ef0010c0b30006
:100f780035f0b700400321009eff0700230037002b
:100f880035d0bf000004e0000e0032005081800020
:100f98000000e00005003a0034d0bf000080fb00ec
:100fa800408188002a30ef003570ef0040818000d2
:100fb800e50f5000120036006000200040818800d4
:100fc800120037004081800042032100124178005e
:100fd800e102210081004000824878000000e8001a
:100fe8004081880040818000e50f500006003600ef
:100ff8002830ef000500370000000000030037002c
:1010080000000000010037000000000010c0b3001d
:101018000080fa00000006000000fa00007c800052
:101028000080fa00000006000200fa00faff07003c
:10103800000f78001e007800240007000004e0007c
:101048000200320000002800710007001e0078002e
:101058002a0007000004e00002003200000024001b
:101068006b0007001e007800320007000004e00053
:101078000200320000202000650007001e007800f2
:101088003a0007000004e0000200320000082000d7
:101098005f0007001e007800420007000004e0001f
:1010a8000200320000042000590007001e007800ea
:1010b8004a0007000004e00002003200000120009e
:1010c800530007000080fa00000006000400fa0040
:1010d800100798000040eb00004f78001e009000b9
:1010e8000000e00002003d0010c0b300004f78008f
:1010f8001e4078000080fa00000006000400fa0094
:10110800100798000040eb00004f78009e00900008
:1011180000002400008060000000e00002003200af
:1011280010c0b300004f78001e4078000080fa001d
:10113800000006000400fa00100798000040eb00c9
:10114800004f78009e009000002020000080600082
:101158000000e0000200320010c0b300004f780029
:101168001e4078000080fa00000006000400fa0023
:10117800100798000040eb00004f78009e00900098
:1011880000082000008060000000e000020032003b
:1011980010c0b300004f78001e4078000080fa00ad
:1011a800000006000400fa00100798000040eb0059
:1011b800004f78009e00900000042000008060002e
:1011c8000000e0000200320010c0b300004f7800b9
:1011d8001e4078000080fa00000006000400fa00b3
:1011e800100798000040eb00004f78001e009000a8
:1011f800700060000000e0000200320010c0b30080
:10120800004f78001e4078000080fa0000000600b9
:101218000200fa00000f78009e80ea00007c80003f
:1012280000806000007c88000080fa000000060052
:101238000000fa00802fef000080fa00000006008e
:101248000000fa000421ef00104e2e00400888002c
:101258000003280000088800c08180000000e0002a
:1012680002003a00009720002f0007000028a9007c
:101278002028a8003a70ef000080fa00000006005d
:101288000200fa00000f78009e00780041088800ec
:101298003a70ef000080fa00000006000000fa0033
:1012a800400880000080fa00000006000200fa00f2
:1012b800000f78009e007800210888003a70ef003f
:1012c8000080fa00000006000000fa0020088000f4
:1012d8000080fa00000006000200fa000040eb005f
:1012e8009bfe07000080fb00000f78000e007800ce
:1012f8004dfe0700cafd070000000000ccfd0700f6
:101308000004a2000004e000fcff3a00d3fd07003f
:1013180000000000c6fd07000004e000fdff3a00e1
:101328000080fa00000006000200fa00000f7800b2
:101338002028a9009e007800c18188002028a800e4
:101348000080fa00000006000000fa003a70ef0082
:101358002028a80001e1a8000080fa00000006008b
:101368000000fa0001e1a9002028a9000080fa0085
:10137800000006000200fa00a10321009140780055
:10138800014f78001e4078000004e00001003200a0
:101398003a70ef001e4078000080fa000000060056
:1013a8000000fa003bd0bf000080fb000080fa007c
:1013b800000006000000fa003b70ef000080fa0011
:1013c800000006000a00fa00e60007000000eb0033
:1013d800100798000000eb002007980000000000ac
:1013e800a2fd07000004a2000004e000fcff3a0090
:1013f800a9fd0700000000009cfd07000004e000b4
:10140800fdff3a00a8fd07006400470025fe07001d
:101418000e80e80004fe070081fd070000000000c0
:1014280083fd07000004a2000004e000fcff3a006e
:101438008afd0700000000007dfd07000004e000b1
:10144800fdff3a001e80fb0064fe07001e4090006e
:101458000080fb0067fe0700010037000000000065
:1014680082fd07000004e000fcff32008afd07004f
:10147800000000007dfd07000004e000fdff3a00c9
:101488006400470007fe070087fd07002e00900054
:10149800004078008040780010c0b30034fe070098
:1014a8003e009000004078008040780020c0b300e3
:1014b8002ffe07003e0090004800de000040780044
:1014c8008040780030c0b30029fe07004e0090002d
:1014d800004078008040780040c0b30024fe070038
:1014e8004e0090004800de00004078008040780000
:1014f80050c0b3001efe0700d9ff37000000fa00f5
:1015080010002300307c880060092000407c88009f
:1015180010042000507c880010102000707c880087
:1015280060092000807c880010042000907c8800de
:10153800b82fef00ba2fef00002def00a42fef0017
:10154800a62fef00aa2fef00ae2fef00b02fef006d
:10155800b22fef001200200080072000a109200010
:1015680053f8200080497800814978008249780042
:1015780012002000600420007105200043f82000bc
:10158800804978008149780082497800000000008d
:10159800207c8000610060000000e000fcff3a0051
:1015a80000000000217c8000000220000080600014
:1015b8000000e000fbff32000080fa000000060097
:1015c8000000fa00062eef00222eef003e2eef005c
:1015d8005a2eef00762eef00f001200010708800e0
:1015e8000080eb00f0708800f0cf2f00d0718800e9
:1015f8000080eb00b0728800d0fe2f009073880046
:101608000c2eef00282eef00442eef00602eef0086
:101618007c2eef000a2eef00262eef00422eef0060
:101628005e2eef007a2eef00082eef00242eef003a
:10163800402eef005c2eef00782eef00e001200036
:1016480000708800f0092000e0708800f00c20008d
:10165800c071880000c02700a07288000004200024
:10166800807388000080fa00000006000200fa007b
:10167800000f780003003700804f2200110020007f
:101688007c0007001e00780000f0a7000000ea00b8
:101698000000ea004f00de00004078001e0fe9005d
:1016a8000004e000f4ff3a000080fa0000000600a1
:1016b8000200fa00000f78000500370000962000ad
:1016c800010020006b00070001fe2f001e8f400064
:1016d8001e007800ff0f5000f8ff3e00030037009f
:1016e800b004200001002000620007001e007800fe
:1016f80000f0a7000000ea000000ea004f00de004a
:10170800004078001e0fe9000004e000f4ff3a00f2
:101718000080fa00000006000200fa00000f7800be
:1017280021028000200f2000008060001e00700051
:10173800200288000080fa00000006000000fa007d
:10174800c3e8a80000000000000000000080fa00c4
:10175800000006000000fa00b5efa8000080fa00bb
:10176800000006000000fa0095ff070063ff07006d
:101778001e000700a2fc070087fd0700b0fe070057
:10178800eeff070000022000e3ff0700f1ff07005b
:081798000080fa0000000600c9
:020000040000fa
:1017a0003c1000000200000082000000ffff00006b
:1017b0000010000020000000800000003810000031
:1017c0000400000080000000201000000e00000057
:1017d000800000002e1000000a00000082000000bf
:1017e0000102030004050600aa0101000000000038
:0417f00000000000f5
:020000040000fa
:1017f4000000fa0011002000a8210a00800800005f
:1018040011002000ec210a008008000011002000d3
:1018140064210a00480800001100200020210a0069
:10182400480800001100200064210a00400800005c
:101834000080fa00000006000000fa0030ff0700f4
:101844000080fa00000006000000fa00007c80001e
:101854000080fa00000006000000fa00f3fd070013
:101864000080fa00000006000000fa0071fe070084
:081874000080fa0000000600ec
:020000040000fa
:10187c00f03fb1000180b10006003500ee03090015
:10188c0000000000403fb1000180b100fbff3d00b3
:10189c001000b000203fb0000200350000800900ad
:0818ac0000000000000006002e
:020000040000fa
:1018b400000f78009e007800e1818800ffff370068
:1018c4000000fa0000002100800778008001210058
:0c18d400000188000080fa0000000600ff
:00000001FF
