:020000040000fa
:080000000002040000000000f2
:020000040000fa
:040008001c030000d5
:020000040000fa
:04000c002e030000bf
:020000040000fa
:040010003e030000ab
:020000040000fa
:0400140024030000c1
:020000040000fa
:0400180036030000ab
:020000040000fa
:04001c00e0040000fc
:020000040000fa
:040020004603000093
:020000040000fa
:04002400e0040000f4
:020000040000fa
:04002800e0040000f0
:020000040000fa
:04002c004e0300007f
:020000040000fa
:04003000e0040000e8
:020000040000fa
:04003400e0040000e4
:020000040000fa
:04003800e0040000e0
:020000040000fa
:04003c00e0040000dc
:020000040000fa
:04004000e0040000d8
:020000040000fa
:04004400e0040000d4
:020000040000fa
:04004800e0040000d0
:020000040000fa
:04004c00e0040000cc
:020000040000fa
:04005000e0040000c8
:020000040000fa
:04005400e0040000c4
:020000040000fa
:04005800e0040000c0
:020000040000fa
:04005c00e0040000bc
:020000040000fa
:04006000e0040000b8
:020000040000fa
:04006400e0040000b4
:020000040000fa
:040068007e03000013
:020000040000fa
:04006c00e0040000ac
:020000040000fa
:04007000e0040000a8
:020000040000fa
:04007400e0040000a4
:020000040000fa
:04007800e0040000a0
:020000040000fa
:04007c00e00400009c
:020000040000fa
:04008000e004000098
:020000040000fa
:04008400e004000094
:020000040000fa
:04008800e004000090
:020000040000fa
:04008c00e00400008c
:020000040000fa
:04009000e004000088
:020000040000fa
:04009400e004000084
:020000040000fa
:04009800e004000080
:020000040000fa
:04009c00e00400007c
:020000040000fa
:0400a000e004000078
:020000040000fa
:0400a400e004000074
:020000040000fa
:0400a800e004000070
:020000040000fa
:0400ac00e00400006c
:020000040000fa
:0400b000e004000068
:020000040000fa
:0400b400e004000064
:020000040000fa
:0400b800e004000060
:020000040000fa
:0400bc00e00400005c
:020000040000fa
:0400c000e004000058
:020000040000fa
:0400c400e004000054
:020000040000fa
:0400c800e004000050
:020000040000fa
:0400cc00e00400004c
:020000040000fa
:0400d000e004000048
:020000040000fa
:0400d400e004000044
:020000040000fa
:0400d800e004000040
:020000040000fa
:0400dc00e00400003c
:020000040000fa
:0400e000e004000038
:020000040000fa
:0400e400e004000034
:020000040000fa
:0400e800e004000030
:020000040000fa
:0400ec00e00400002c
:020000040000fa
:0400f000e004000028
:020000040000fa
:0400f400e004000024
:020000040000fa
:0400f800e004000020
:020000040000fa
:0400fc00e00400001c
:020000040000fa
:04010000e004000017
:020000040000fa
:04010400e004000013
:020000040000fa
:04010800e00400000f
:020000040000fa
:04010c00e00400000b
:020000040000fa
:04011000e004000007
:020000040000fa
:04011400e004000003
:020000040000fa
:04011800e0040000ff
:020000040000fa
:04011c00e0040000fb
:020000040000fa
:04012000e0040000f7
:020000040000fa
:04012400e0040000f3
:020000040000fa
:04012800e0040000ef
:020000040000fa
:04012c00e0040000eb
:020000040000fa
:04013000e0040000e7
:020000040000fa
:04013400e0040000e3
:020000040000fa
:04013800e0040000df
:020000040000fa
:04013c00e0040000db
:020000040000fa
:04014000e0040000d7
:020000040000fa
:04014400e0040000d3
:020000040000fa
:04014800e0040000cf
:020000040000fa
:04014c00e0040000cb
:020000040000fa
:04015000e0040000c7
:020000040000fa
:04015400e0040000c3
:020000040000fa
:04015800e0040000bf
:020000040000fa
:04015c00e0040000bb
:020000040000fa
:04016000e0040000b7
:020000040000fa
:04016400e0040000b3
:020000040000fa
:04016800e0040000af
:020000040000fa
:04016c00e0040000ab
:020000040000fa
:04017000e0040000a7
:020000040000fa
:04017400e0040000a3
:020000040000fa
:04017800e00400009f
:020000040000fa
:04017c00e00400009b
:020000040000fa
:04018000e004000097
:020000040000fa
:04018400e004000093
:020000040000fa
:04018800e00400008f
:020000040000fa
:04018c00e00400008b
:020000040000fa
:04019000e004000087
:020000040000fa
:04019400e004000083
:020000040000fa
:04019800e00400007f
:020000040000fa
:04019c00e00400007b
:020000040000fa
:0401a000e004000077
:020000040000fa
:0401a400e004000073
:020000040000fa
:0401a800e00400006f
:020000040000fa
:0401ac00e00400006b
:020000040000fa
:0401b000e004000067
:020000040000fa
:0401b400e004000063
:020000040000fa
:0401b800e00400005f
:020000040000fa
:0401bc00e00400005b
:020000040000fa
:0401c000e004000057
:020000040000fa
:0401c400e004000053
:020000040000fa
:0401c800e00400004f
:020000040000fa
:0401cc00e00400004b
:020000040000fa
:0401d000e004000047
:020000040000fa
:0401d400e004000043
:020000040000fa
:0401d800e00400003f
:020000040000fa
:0401dc00e00400003b
:020000040000fa
:0401e000e004000037
:020000040000fa
:0401e400e004000033
:020000040000fa
:0401e800e00400002f
:020000040000fa
:0401ec00e00400002b
:020000040000fa
:0401f000e004000027
:020000040000fa
:0401f400e004000023
:020000040000fa
:0401f800e00400001f
:020000040000fa
:0401fc00e00400001b
:020000040000fa
:04020000e004000016
:020000040000fa
:04020400e004000012
:020000040000fa
:04020800e00400000e
:020000040000fa
:04020c00e00400000a
:020000040000fa
:04021000e004000006
:020000040000fa
:04021400e004000002
:020000040000fa
:04021800e0040000fe
:020000040000fa
:04021c00e0040000fa
:020000040000fa
:04022000e0040000f6
:020000040000fa
:04022400e0040000f2
:020000040000fa
:04022800e0040000ee
:020000040000fa
:04022c00e0040000ea
:020000040000fa
:04023000fe020000ca
:020000040000fa
:04023400e0040000e2
:020000040000fa
:04023800e0040000de
:020000040000fa
:04023c00e0040000da
:020000040000fa
:04024000e0040000d6
:020000040000fa
:04024400e0040000d2
:020000040000fa
:04024800e0040000ce
:020000040000fa
:04024c00e0040000ca
:020000040000fa
:04025000e0040000c6
:020000040000fa
:04025400e0040000c2
:020000040000fa
:04025800e0040000be
:020000040000fa
:04025c00e0040000ba
:020000040000fa
:04026000e0040000b6
:020000040000fa
:04026400e0040000b2
:020000040000fa
:04026800e0040000ae
:020000040000fa
:04026c00e0040000aa
:020000040000fa
:04027000e0040000a6
:020000040000fa
:04027400e0040000a2
:020000040000fa
:04027800e00400009e
:020000040000fa
:04027c00e00400009a
:020000040000fa
:04028000e004000096
:020000040000fa
:04028400e004000092
:020000040000fa
:04028800e00400008e
:020000040000fa
:04028c00e00400008a
:020000040000fa
:04029000e004000086
:020000040000fa
:04029400e004000082
:020000040000fa
:04029800e00400007e
:020000040000fa
:04029c00e00400007a
:020000040000fa
:0402a000e004000076
:020000040000fa
:0402a400e004000072
:020000040000fa
:0402a800e00400006e
:020000040000fa
:0402ac00e00400006a
:020000040000fa
:0402b000e004000066
:020000040000fa
:0402b400e004000062
:020000040000fa
:0402b800e00400005e
:020000040000fa
:0402bc00e00400005a
:020000040000fa
:0402c000e004000056
:020000040000fa
:0402c400e004000052
:020000040000fa
:0402c800e00400004e
:020000040000fa
:0402cc00e00400004a
:020000040000fa
:0402d000e004000046
:020000040000fa
:0402d400e004000042
:020000040000fa
:0402d800e00400003e
:020000040000fa
:0402dc00e00400003a
:020000040000fa
:0402e000e004000036
:020000040000fa
:0402e400e004000032
:020000040000fa
:0402e800e00400002e
:020000040000fa
:0402ec00e00400002a
:020000040000fa
:0402f000e004000026
:020000040000fa
:0402f400e004000022
:020000040000fa
:0402f800e00400001e
:020000040000fa
:0402fc00e00400001a
:020000040000fa
:04030000e004000015
:020000040000fa
:04030400e004000011
:020000040000fa
:04030800e00400000d
:020000040000fa
:04030c00e004000009
:020000040000fa
:04031000e004000005
:020000040000fa
:04031400e004000001
:020000040000fa
:04031800e0040000fd
:020000040000fa
:04031c00e0040000f9
:020000040000fa
:10040000cf0321000eff21000e0188000000000034
:10041000000020000000e000020032000001200087
:100420002002880014000700670107000000e000b8
:1004300003003a0060ab20000100200002003700fa
:100440000000200001002000810f70000100320038
:100450000f000700000020000000e0000200320052
:100460000000020000000000840a020000000000fa
:100470000040da000000fe00200020000000e00044
:1004800002003200100020009001880000000600e9
:10049000a1028800800478000000eb001f003700f4
:1004a000e284440054a0b4009905ba00e2844400f8
:1004b00054a0b4009906ba00e284440054a0b400e9
:1004c0000006eb00476fde00fd07b200ae018800ba
:1004d000636ce10003003a000ad801000000eb0061
:1004e0000e003700606ce10008003a00004deb00a0
:1004f0000a05e800020039003420ec000af0a000f0
:100500008b05e900f9ff3e00040037006168e10057
:10051000010032000086eb000b00070019c7ba008b
:100520001905ba000e04e00003003a000a00e000da
:10053000dbff3a0000000600fe07b200ae028800b2
:100540008a047800f5ff37000cd0a300e20f4d00bd
:100550001c00390089027800354dba000a05e80010
:10056000020039003420ec000af0a0008b05e900fd
:100570000f003200254dba000a05e80002003900dc
:100580003420ec000af0a0008b05e90008003200de
:100590000c00e0000600320015cdba000a05e800a4
:1005a000020039003420ec000af0a0008b05e900bd
:1005b0008984e80054a0b4000b00e000e2ff3a0098
:1005c000000006009902ba00055d78008b05e9007d
:1005d000f7ff3200c82ade00055d78008b05e900d0
:1005e000f3ff32000c00e000f1ff320019ddba0029
:1005f000eeff3700e0080400000000003600f800bd
:10060000809fbe00829fbe00849fbe00869fbe006a
:100610000000fa00870107001048a9000080fa00d6
:100620004f03be004f02be004f01be004f00be0090
:100630003600f900004006003600f800c028a90086
:100640000000eb000a0407003600f8000c04070065
:10065000c048a90010002000050407003600f8007b
:10066000c068a90020002000010407003600f8003f
:10067000c088a90030002000fd0307003600f80004
:10068000c608a90070002000f90307003600f80032
:10069000c408a900b0002000f50307003600f800e8
:1006a000809fbe00829fbe00849fbe00869fbe00ca
:1006b0000000fa00b08180000000e000020032007b
:1006c000b08180000000010039d0bf000040e80088
:1006d00039f0b70010c0b30038f0b7000028a90007
:1006e0000080fa004f03be004f02be004f01be0063
:1006f0004f00be003600f900004006003600f8004a
:10070000809fbe00829fbe00849fbe00869fbe0069
:100710000200fa0010818000e20f500088003200d1
:10072000e20f500003003900e30f50007700320061
:10073000950037000110800000402000008060001c
:100740000000e00005003a002110800000022000b7
:10075000008060000000e0000a003200011080000c
:1007600000082000008060000000e000240032004b
:100770002110800000202000008060000000e000c8
:100780001f00320020108000640060000000e000c4
:100790000c003a0010002000970107002081800023
:1007a0000000e0000400320020818000c1108000c1
:1007b00081407800014878001000200010818800f6
:1007c00036003700c0108000004f78000000eb00ba
:1007d00089010700308180000000e0000500320040
:1007e00030818000104078000080fb00a01088005d
:1007f0000182a80020002000108188002700370017
:100800000110800000402000008060000000e00037
:1008100022003200211080000002200000806000d1
:100820000000e0001d003a0020108000640060001d
:100830000000e00004003a002c70ef0030002000bf
:1008400010818800130037002cd0bf000004e000a6
:100850000d0032000000eb006701070030818000ce
:100860000000e00005003200308180001040780078
:100870000080fb00a01088000182a800200020005a
:1008800010818800030037002c70ef00300020003a
:1008900010818800c0108000004f78001081800017
:1008a000e10f500039003a002110800000022000c2
:1008b000008060000000e00036003200211080005f
:1008c00000042000008060000000e0000b003a00ff
:1008d000208180000000e0000400320020818000c0
:1008e000c11080008140780001487800200020007d
:1008f0004101070035f0b70029003700c010800023
:10090000004f780004c2a900250037003000200005
:100910003901070035f0b70010c0b3002cf0b70064
:1009200035d0bf000004e00002003200c01080009b
:10093000004f780010002000108188001800370058
:100940002110800000002800008060000000e0000e
:100950000b003a000000eb00270107003081800007
:100960000000e0000d00320030818000104078006f
:100970000080fb00a01088000182a800080037005a
:100980002230ef0006003700ffff370000000000b4
:1009900003003700000000000100370000000000e5
:1009a0000208a9000080fa004f03be004f02be00fb
:1009b0004f01be004f00be003600f90000400600a7
:0c09c0000040da000000fe00000005000e
:020000040000fa
:1009cc000000fa00d221ef001048a9003048a8001e
:1009dc000080fa00000006000000fa00d321a800f5
:1009ec000080fa00000006000000fa0088a00a004f
:1009fc00d40100000080fb0000f0a7000000ea001a
:100a0c000000ea004f00de00004078000080fa0091
:100a1c00000006000000fa00d321a9000080fa00b3
:100a2c00000006000000fa0099a00a00d4010000a2
:100a3c000080fb0000f0a7000000ea000000ea00c4
:100a4c004f00de00004078000080fa000000060035
:100a5c000000fa00d301a8000080fa000000060094
:100a6c000000fa00d301a9000080fa000000060083
:100a7c000200fa0030002000000f7800a10e800068
:100a8c0000002800008060000000e000030032003d
:100a9c0040002000000f780015003700dca00a0091
:100aac00d40100000080fb00e10f50000700320071
:100abc00e20f5000080032000000e00009003a008c
:100acc000000eb00000f7800090037002000200028
:100adc00000f78000600370010002000000f78008f
:100aec000300370030002000000f780000000000e9
:100afc001e0078000080fa00000006000600fa00d4
:100b0c0010079800210798000000eb00000f7800f8
:100b1c000f003700d10f8000001020000080600013
:100b2c000000e0000e003a00f10f80001e00900063
:100b3c00010878001e0090000080e8001007980063
:100b4c002e0090000000e900200798001e0fe8001e
:100b5c002e0090000000e000eeff3a00010037008c
:100b6c00000000001e0078000080fa000000060063
:100b7c000600fa0010079800210798000000eb000f
:100b8c00000f78000e003700d00f8000620060006c
:100b9c000000e0000e003a001e00900010007800eb
:100bac00e00f88001e0090000080e80010079800fd
:100bbc002e0090000000e900200798001e0fe800ae
:100bcc002e0090000000e000efff3a00010037001b
:100bdc00000000001e0078000080fa0000000600f3
:100bec000400fa00100798000040eb00004f78005a
:100bfc00100007000004e000060032001e00900008
:100c0c0010007800d00e880010c0b300004f7800a0
:100c1c00020037000040eb00004f78001e407800c7
:100c2c000080fa00000006000000fa000080fa00c4
:100c3c00000006000000fa00c00e80006100600099
:100c4c0000f0a7000000ea000000e9004f00de0001
:100c5c00004078000080fa00000006000200fa0054
:100c6c00004f78009e80fb00e002210000804000d5
:100c7c00104078000080fa00000006000200fa0024
:100c8c00004f7800114798009e80fb00e002210085
:100c9c00008040009e409000014878000080fa00df
:100cac00000006000000fa00000028000010880078
:100cbc000422ef00d000200025000700d000200007
:100ccc001d0007002230ef000000eb0006000700bb
:100cdc000000eb000a0007000208a9002208a80087
:100cec000080fa00000006000200fa00000f7800f5
:100cfc009e007800318188000080fa000000060018
:100d0c000200fa00000f78009e0078002181880014
:100d1c000080fa00000006000000fa00308180001c
:100d2c000080fa00000006000000fa00208180001c
:100d3c000080fa00000006000200fa00000f7800a4
:100d4c009e007800611088000080fa000000060008
:100d5c000200fa00000f7800f00720009e007800d7
:100d6c00808f5000020036000142a80001003700bd
:100d7c000142a9002230ef009e007800411088004b
:100d8c000080fa00000006000000fa0030818000ac
:100d9c000000e00006003200308180001040780036
:100dac000080fb00a01088000182a8000100370021
:100dbc00000000000080fa00000006000000fa00ad
:100dcc00208180000000e0000500320020818000be
:100ddc00c110800081407800014878000100370084
:100dec00000000000080fa00000006000200fa007b
:100dfc00000f78001e007800e10f50001100320047
:100e0c00e10f500003003900e20f500013003200d4
:100e1c003500370040818000e10221008100400054
:100e2c000000e8004081880001007800aeff070058
:100e3c0040818000e40f5000260036002830ef007f
:100e4c00290037002a30ef0010c0b30034f0b7008f
:100e5c0030032100aaff07002300370034d0bf0065
:100e6c000004e0000e003200508180000000e00021
:100e7c0005003a0033d0bf000080fb0040818800a1
:100e8c002a30ef003470ef0040818000e40f5000f6
:100e9c0012003600500020004081880012003700fc
:100eac00408180003203210012417800e1022100d0
:100ebc0081004000824878000000e80040818800f2
:100ecc0040818000e40f5000060036002830ef000f
:100edc000500370000000000030037000000000090
:100eec00010037000000000010c0b3000080fa00c1
:100efc00000006000000fa00007c80000080fa0070
:100f0c00000006000200fa00faff0700000f78004c
:100f1c001e007800240007000004e00002003200ec
:100f2c0000002800710007001e0078002a0007004e
:100f3c000004e00002003200000024006b000700f7
:100f4c001e007800320007000004e00002003200ae
:100f5c0000202000650007001e0078003a00070002
:100f6c000004e00002003200000820005f000700cf
:100f7c001e007800420007000004e000020032006e
:100f8c0000042000590007001e0078004a000700ea
:100f9c000004e000020032000001200053000700b2
:100fac000080fa00000006000400fa001007980008
:100fbc000040eb00004f78001e0090000000e000a5
:100fcc0002003d0010c0b300004f78001e407800b6
:100fdc000080fa00000006000400fa0010079800d8
:100fec000040eb00004f78009e00900000002400b1
:100ffc00008060000000e0000200320010c0b3006e
:10100c00004f78001e4078000080fa0000000600b7
:10101c000400fa00100798000040eb00004f780025
:10102c009e00900000202000008060000000e00086
:10103c000200320010c0b300004f78001e40780050
:10104c000080fa00000006000400fa001007980067
:10105c000040eb00004f78009e009000000820003c
:10106c00008060000000e0000200320010c0b300fd
:10107c00004f78001e4078000080fa000000060047
:10108c000400fa00100798000040eb00004f7800b5
:10109c009e00900000042000008060000000e00032
:1010ac000200320010c0b300004f78001e407800e0
:1010bc000080fa00000006000400fa0010079800f7
:1010cc000040eb00004f78001e00900070006000a4
:1010dc000000e0000200320010c0b300004f7800a6
:1010ec001e4078000080fa00000006000200fa00a2
:1010fc00000f78009e80ea00007c80000080600079
:10110c00007c88000080fa00000006000000fa0055
:10111c00802fef000080fa00000006000000fa00ab
:10112c000421ef00f0342c00400888000002280055
:10113c0000088800b08180000000e00002003a0046
:10114c00008e20002f0007000028a9002028a800ee
:10115c003870ef000080fa00000006000200fa0070
:10116c00000f78009e007800410888003870ef006e
:10117c000080fa00000006000000fa004008800021
:10118c000080fa00000006000200fa00000f780050
:10119c009e007800210888003870ef000080fa006b
:1011ac00000006000000fa00200880000080fa0011
:1011bc00000006000200fa0030c0b300a7fe0700d2
:1011cc000080fb00000f78000e00780084fe070002
:1011dc0001fe07000000000003fe07000004a2004f
:1011ec000004e000fcff3a000afe070000000000cb
:1011fc00fdfd07000004e000fdff3a000080fa004e
:10120c00000006000200fa00000f78002028a90058
:10121c009e007800b18188002028a8000080fa0088
:10122c00000006000000fa003870ef002028a8002b
:10123c0001e1a8000080fa00000006000000fa009e
:10124c0001e1a9002028a9000080fa000000060096
:10125c000200fa008103210091407800014f7800d0
:10126c001e4078000004e000010032003870ef00ee
:10127c001e4078000080fa00000006000000fa0012
:10128c0039d0bf000080fb000080fa00000006008f
:10129c000000fa003970ef000080fa000000060030
:1012ac000000fa00062eef00222eef003e2eef007b
:1012bc005a2eef00762eef00f001200010708800ff
:1012cc000080eb00f0708800f0cf2f00d071880008
:1012dc000080eb00b0728800d0ff2f009073880064
:1012ec000c2eef00282eef00442eef00602eef00a6
:1012fc007c2eef000a2eef00262eef00422eef0080
:10130c005e2eef007a2eef00082eef00242eef0059
:10131c00402eef005c2eef00782eef00e001200055
:10132c0000708800f0092000e0708800f00c2000ac
:10133c00c071880000c02700a07288000004200043
:10134c00807388000080fa00000006000200fa009a
:10135c00000f78000300370000fa20000100200085
:10136c00b20007001e00780000f0a7000000ea00a1
:10137c000000ea004f00de00004078001e0fe9007c
:10138c000004e000f4ff3a000080fa0000000600c0
:10139c000200fa00000f780005003700000820005a
:1013ac0001002000a100070001fe2f001e8f40004d
:1013bc001e007800ff0f5000f8ff3e0003003700be
:1013cc004000200001002000980007001e0078005b
:1013dc0000f0a7000000ea000000ea004f00de0069
:1013ec00004078001e0fe9000004e000f4ff3a0012
:1013fc000080fa00000006000000fa001000230034
:10140c00307c880060092000407c8800100420009b
:10141c00507c880010102000707c8800600920002f
:10142c00807c880010042000907c8800b82fef008e
:10143c00ba2fef00002def00a42fef00a62fef0026
:10144c00aa2fef00ae2fef00b02fef00b22fef005e
:10145c007200200080072000a109200053f8200012
:10146c008049780081497800824978000001eb00be
:10147c00600420007105200043f8200080497800aa
:10148c0081497800824978000080fa00000006004b
:10149c000200fa00000f780021028000200f2000cb
:1014ac00008060001e007000200288000080fa009e
:1014bc00000006000000fa00c3e8a80000000000cd
:1014cc00000000000080fa00000006000000fa0096
:1014dc0073ff0700c8ff07004500070038fd070031
:1014ec00f0fd07000dff0700f2ff070000022000cf
:1014fc00e7ff07000080fa00000006000400fa0075
:10150c00f2ff07000000eb00100798000e80e800c7
:10151c00b3fd070030fd07000000000032fd07009e
:10152c000004a2000004e000fcff3a0039fd0700b3
:10153c00000000002cfd07000004e000fdff3a0055
:10154c001e80fb00e8fd07001e4090000080fb00a1
:10155c00ebfd0700f0c0b30010479800ffff370009
:020000040000fa
:10156c003a1000000200000082000000ffff0000a3
:10157c000010000020000000800000003610000069
:10158c000400000080000000201000000e0000008d
:10159c00800000002e1000000800000082000000f7
:1015ac00010203000405aa00010100000000000074
:020000040000fa
:1015bc000000fa0090ff07000080fa00000006000f
:1015cc000000fa00007c80000080fa000000060099
:1015dc000000fa004bfe07000080fa000000060035
:1015ec000000fa00c9fe07000080fa0000000600a7
:1015fc000000fa0011002000a8210a008008000059
:10160c001100200064210a0048080000110020008d
:10161c0020210a00480800001100200064210a0063
:0c162c00400800000080fa0000000600ea
:020000040000fa
:10163800f03fb1000180b10006003500ee0309005b
:1016480000000000403fb1000180b100fbff3d00f9
:101658001000b000203fb0000200350000800900f3
:08166800000000000000060074
:020000040000fa
:10167000000f78009e007800d1818800ffff3700be
:101680000000fa000000210080077800800121009e
:0c169000000188000080fa000000060045
:00000001FF
